{
  "_format": "hh-sol-artifact-1",
  "contractName": "RentDistributor",
  "sourceName": "contracts/RentDistributor.sol",
  "abi": [
    {
      "inputs": [
        {
          "internalType": "address",
          "name": "investmentManagerAddress",
          "type": "address"
        }
      ],
      "stateMutability": "nonpayable",
      "type": "constructor"
    },
    {
      "anonymous": false,
      "inputs": [
        {
          "indexed": true,
          "internalType": "address",
          "name": "investor",
          "type": "address"
        },
        {
          "indexed": false,
          "internalType": "uint256",
          "name": "projectId",
          "type": "uint256"
        },
        {
          "indexed": false,
          "internalType": "uint256",
          "name": "amount",
          "type": "uint256"
        }
      ],
      "name": "RentCalculated",
      "type": "event"
    },
    {
      "inputs": [],
      "name": "admin",
      "outputs": [
        {
          "internalType": "address",
          "name": "",
          "type": "address"
        }
      ],
      "stateMutability": "view",
      "type": "function"
    },
    {
      "inputs": [],
      "name": "investmentManager",
      "outputs": [
        {
          "internalType": "contract IInvestmentManager",
          "name": "",
          "type": "address"
        }
      ],
      "stateMutability": "view",
      "type": "function"
    },
    {
      "inputs": [
        {
          "internalType": "uint256",
          "name": "projectId",
          "type": "uint256"
        },
        {
          "internalType": "address[]",
          "name": "investors",
          "type": "address[]"
        },
        {
          "internalType": "uint256",
          "name": "totalRent",
          "type": "uint256"
        }
      ],
      "name": "recordRentDistribution",
      "outputs": [],
      "stateMutability": "nonpayable",
      "type": "function"
    }
  ],
  "bytecode": "0x608060405234801561001057600080fd5b50604051610a96380380610a968339818101604052810190610032919061011c565b336000806101000a81548173ffffffffffffffffffffffffffffffffffffffff021916908373ffffffffffffffffffffffffffffffffffffffff16021790555080600160006101000a81548173ffffffffffffffffffffffffffffffffffffffff021916908373ffffffffffffffffffffffffffffffffffffffff16021790555050610149565b600080fd5b600073ffffffffffffffffffffffffffffffffffffffff82169050919050565b60006100e9826100be565b9050919050565b6100f9816100de565b811461010457600080fd5b50565b600081519050610116816100f0565b92915050565b600060208284031215610132576101316100b9565b5b600061014084828501610107565b91505092915050565b61093e806101586000396000f3fe608060405234801561001057600080fd5b50600436106100415760003560e01c80634b31bb10146100465780636fc8646e14610064578063f851a44014610080575b600080fd5b61004e61009e565b60405161005b9190610490565b60405180910390f35b61007e60048036038101906100799190610550565b6100c4565b005b6100886103ed565b60405161009591906105e5565b60405180910390f35b600160009054906101000a900473ffffffffffffffffffffffffffffffffffffffff1681565b60008054906101000a900473ffffffffffffffffffffffffffffffffffffffff1673ffffffffffffffffffffffffffffffffffffffff163373ffffffffffffffffffffffffffffffffffffffff1614610152576040517f08c379a00000000000000000000000000000000000000000000000000000000081526004016101499061065d565b60405180910390fd5b600080600090505b84849050811015610250576000600160009054906101000a900473ffffffffffffffffffffffffffffffffffffffff1673ffffffffffffffffffffffffffffffffffffffff16636ce12c35888888868181106101b9576101b861067d565b5b90506020020160208101906101ce91906106d8565b6040518363ffffffff1660e01b81526004016101eb929190610714565b6040805180830381865afa158015610207573d6000803e3d6000fd5b505050506040513d601f19601f8201168201806040525081019061022b9190610752565b509050808361023a91906107c1565b9250508080610248906107f5565b91505061015a565b5060005b848490508110156103e5576000600160009054906101000a900473ffffffffffffffffffffffffffffffffffffffff1673ffffffffffffffffffffffffffffffffffffffff16636ce12c35888888868181106102b3576102b261067d565b5b90506020020160208101906102c891906106d8565b6040518363ffffffff1660e01b81526004016102e5929190610714565b6040805180830381865afa158015610301573d6000803e3d6000fd5b505050506040513d601f19601f820116820180604052508101906103259190610752565b5090506000811180156103385750600083115b156103d157600083828661034c919061083d565b61035691906108ae565b905086868481811061036b5761036a61067d565b5b905060200201602081019061038091906106d8565b73ffffffffffffffffffffffffffffffffffffffff167f70e76a9be087afe1e66b1944dda5f15c0605dbd645279b14a228c5698f58939b89836040516103c79291906108df565b60405180910390a2505b5080806103dd906107f5565b915050610254565b505050505050565b60008054906101000a900473ffffffffffffffffffffffffffffffffffffffff1681565b600073ffffffffffffffffffffffffffffffffffffffff82169050919050565b6000819050919050565b600061045661045161044c84610411565b610431565b610411565b9050919050565b60006104688261043b565b9050919050565b600061047a8261045d565b9050919050565b61048a8161046f565b82525050565b60006020820190506104a56000830184610481565b92915050565b600080fd5b600080fd5b6000819050919050565b6104c8816104b5565b81146104d357600080fd5b50565b6000813590506104e5816104bf565b92915050565b600080fd5b600080fd5b600080fd5b60008083601f8401126105105761050f6104eb565b5b8235905067ffffffffffffffff81111561052d5761052c6104f0565b5b602083019150836020820283011115610549576105486104f5565b5b9250929050565b6000806000806060858703121561056a576105696104ab565b5b6000610578878288016104d6565b945050602085013567ffffffffffffffff811115610599576105986104b0565b5b6105a5878288016104fa565b935093505060406105b8878288016104d6565b91505092959194509250565b60006105cf82610411565b9050919050565b6105df816105c4565b82525050565b60006020820190506105fa60008301846105d6565b92915050565b600082825260208201905092915050565b7f4f6e6c792061646d696e2063616e2063616c6c20746869730000000000000000600082015250565b6000610647601883610600565b915061065282610611565b602082019050919050565b600060208201905081810360008301526106768161063a565b9050919050565b7f4e487b7100000000000000000000000000000000000000000000000000000000600052603260045260246000fd5b6106b5816105c4565b81146106c057600080fd5b50565b6000813590506106d2816106ac565b92915050565b6000602082840312156106ee576106ed6104ab565b5b60006106fc848285016106c3565b91505092915050565b61070e816104b5565b82525050565b60006040820190506107296000830185610705565b61073660208301846105d6565b9392505050565b60008151905061074c816104bf565b92915050565b60008060408385031215610769576107686104ab565b5b60006107778582860161073d565b92505060206107888582860161073d565b9150509250929050565b7f4e487b7100000000000000000000000000000000000000000000000000000000600052601160045260246000fd5b60006107cc826104b5565b91506107d7836104b5565b92508282019050808211156107ef576107ee610792565b5b92915050565b6000610800826104b5565b91507fffffffffffffffffffffffffffffffffffffffffffffffffffffffffffffffff820361083257610831610792565b5b600182019050919050565b6000610848826104b5565b9150610853836104b5565b9250828202610861816104b5565b9150828204841483151761087857610877610792565b5b5092915050565b7f4e487b7100000000000000000000000000000000000000000000000000000000600052601260045260246000fd5b60006108b9826104b5565b91506108c4836104b5565b9250826108d4576108d361087f565b5b828204905092915050565b60006040820190506108f46000830185610705565b6109016020830184610705565b939250505056fea2646970667358221220a48bcc8ee135674ed9e872c31c9aa234f71d33d7020003f40f312228133dc1e364736f6c63430008140033",
  "linkReferences": {},
  "deployedLinkReferences": {}
}