{
  "contracts/RentDistributor.sol": {
    "RentDistributor": {
      "abi": [
        {
          "inputs": [
            {
              "internalType": "address",
              "name": "investmentManagerAddress",
              "type": "address"
            }
          ],
          "stateMutability": "nonpayable",
          "type": "constructor"
        },
        {
          "anonymous": false,
          "inputs": [
            {
              "indexed": true,
              "internalType": "address",
              "name": "investor",
              "type": "address"
            },
            {
              "indexed": false,
              "internalType": "uint256",
              "name": "projectId",
              "type": "uint256"
            },
            {
              "indexed": false,
              "internalType": "uint256",
              "name": "amount",
              "type": "uint256"
            }
          ],
          "name": "RentCalculated",
          "type": "event"
        },
        {
          "inputs": [],
          "name": "admin",
          "outputs": [
            {
              "internalType": "address",
              "name": "",
              "type": "address"
            }
          ],
          "stateMutability": "view",
          "type": "function"
        },
        {
          "inputs": [],
          "name": "investmentManager",
          "outputs": [
            {
              "internalType": "contract IInvestmentManager",
              "name": "",
              "type": "address"
            }
          ],
          "stateMutability": "view",
          "type": "function"
        },
        {
          "inputs": [
            {
              "internalType": "uint256",
              "name": "projectId",
              "type": "uint256"
            },
            {
              "internalType": "address[]",
              "name": "investors",
              "type": "address[]"
            },
            {
              "internalType": "uint256",
              "name": "totalRent",
              "type": "uint256"
            }
          ],
          "name": "recordRentDistribution",
          "outputs": [],
          "stateMutability": "nonpayable",
          "type": "function"
        }
      ],
      "evm": {
        "bytecode": {
          "linkReferences": {},
          "object": "608060405234801561001057600080fd5b50604051610a96380380610a968339818101604052810190610032919061011c565b336000806101000a81548173ffffffffffffffffffffffffffffffffffffffff021916908373ffffffffffffffffffffffffffffffffffffffff16021790555080600160006101000a81548173ffffffffffffffffffffffffffffffffffffffff021916908373ffffffffffffffffffffffffffffffffffffffff16021790555050610149565b600080fd5b600073ffffffffffffffffffffffffffffffffffffffff82169050919050565b60006100e9826100be565b9050919050565b6100f9816100de565b811461010457600080fd5b50565b600081519050610116816100f0565b92915050565b600060208284031215610132576101316100b9565b5b600061014084828501610107565b91505092915050565b61093e806101586000396000f3fe608060405234801561001057600080fd5b50600436106100415760003560e01c80634b31bb10146100465780636fc8646e14610064578063f851a44014610080575b600080fd5b61004e61009e565b60405161005b9190610490565b60405180910390f35b61007e60048036038101906100799190610550565b6100c4565b005b6100886103ed565b60405161009591906105e5565b60405180910390f35b600160009054906101000a900473ffffffffffffffffffffffffffffffffffffffff1681565b60008054906101000a900473ffffffffffffffffffffffffffffffffffffffff1673ffffffffffffffffffffffffffffffffffffffff163373ffffffffffffffffffffffffffffffffffffffff1614610152576040517f08c379a00000000000000000000000000000000000000000000000000000000081526004016101499061065d565b60405180910390fd5b600080600090505b84849050811015610250576000600160009054906101000a900473ffffffffffffffffffffffffffffffffffffffff1673ffffffffffffffffffffffffffffffffffffffff16636ce12c35888888868181106101b9576101b861067d565b5b90506020020160208101906101ce91906106d8565b6040518363ffffffff1660e01b81526004016101eb929190610714565b6040805180830381865afa158015610207573d6000803e3d6000fd5b505050506040513d601f19601f8201168201806040525081019061022b9190610752565b509050808361023a91906107c1565b9250508080610248906107f5565b91505061015a565b5060005b848490508110156103e5576000600160009054906101000a900473ffffffffffffffffffffffffffffffffffffffff1673ffffffffffffffffffffffffffffffffffffffff16636ce12c35888888868181106102b3576102b261067d565b5b90506020020160208101906102c891906106d8565b6040518363ffffffff1660e01b81526004016102e5929190610714565b6040805180830381865afa158015610301573d6000803e3d6000fd5b505050506040513d601f19601f820116820180604052508101906103259190610752565b5090506000811180156103385750600083115b156103d157600083828661034c919061083d565b61035691906108ae565b905086868481811061036b5761036a61067d565b5b905060200201602081019061038091906106d8565b73ffffffffffffffffffffffffffffffffffffffff167f70e76a9be087afe1e66b1944dda5f15c0605dbd645279b14a228c5698f58939b89836040516103c79291906108df565b60405180910390a2505b5080806103dd906107f5565b915050610254565b505050505050565b60008054906101000a900473ffffffffffffffffffffffffffffffffffffffff1681565b600073ffffffffffffffffffffffffffffffffffffffff82169050919050565b6000819050919050565b600061045661045161044c84610411565b610431565b610411565b9050919050565b60006104688261043b565b9050919050565b600061047a8261045d565b9050919050565b61048a8161046f565b82525050565b60006020820190506104a56000830184610481565b92915050565b600080fd5b600080fd5b6000819050919050565b6104c8816104b5565b81146104d357600080fd5b50565b6000813590506104e5816104bf565b92915050565b600080fd5b600080fd5b600080fd5b60008083601f8401126105105761050f6104eb565b5b8235905067ffffffffffffffff81111561052d5761052c6104f0565b5b602083019150836020820283011115610549576105486104f5565b5b9250929050565b6000806000806060858703121561056a576105696104ab565b5b6000610578878288016104d6565b945050602085013567ffffffffffffffff811115610599576105986104b0565b5b6105a5878288016104fa565b935093505060406105b8878288016104d6565b91505092959194509250565b60006105cf82610411565b9050919050565b6105df816105c4565b82525050565b60006020820190506105fa60008301846105d6565b92915050565b600082825260208201905092915050565b7f4f6e6c792061646d696e2063616e2063616c6c20746869730000000000000000600082015250565b6000610647601883610600565b915061065282610611565b602082019050919050565b600060208201905081810360008301526106768161063a565b9050919050565b7f4e487b7100000000000000000000000000000000000000000000000000000000600052603260045260246000fd5b6106b5816105c4565b81146106c057600080fd5b50565b6000813590506106d2816106ac565b92915050565b6000602082840312156106ee576106ed6104ab565b5b60006106fc848285016106c3565b91505092915050565b61070e816104b5565b82525050565b60006040820190506107296000830185610705565b61073660208301846105d6565b9392505050565b60008151905061074c816104bf565b92915050565b60008060408385031215610769576107686104ab565b5b60006107778582860161073d565b92505060206107888582860161073d565b9150509250929050565b7f4e487b7100000000000000000000000000000000000000000000000000000000600052601160045260246000fd5b60006107cc826104b5565b91506107d7836104b5565b92508282019050808211156107ef576107ee610792565b5b92915050565b6000610800826104b5565b91507fffffffffffffffffffffffffffffffffffffffffffffffffffffffffffffffff820361083257610831610792565b5b600182019050919050565b6000610848826104b5565b9150610853836104b5565b9250828202610861816104b5565b9150828204841483151761087857610877610792565b5b5092915050565b7f4e487b7100000000000000000000000000000000000000000000000000000000600052601260045260246000fd5b60006108b9826104b5565b91506108c4836104b5565b9250826108d4576108d361087f565b5b828204905092915050565b60006040820190506108f46000830185610705565b6109016020830184610705565b939250505056fea2646970667358221220a48bcc8ee135674ed9e872c31c9aa234f71d33d7020003f40f312228133dc1e364736f6c63430008140033",
          "opcodes": "PUSH1 0x80 PUSH1 0x40 MSTORE CALLVALUE DUP1 ISZERO PUSH2 0x10 JUMPI PUSH1 0x0 DUP1 REVERT JUMPDEST POP PUSH1 0x40 MLOAD PUSH2 0xA96 CODESIZE SUB DUP1 PUSH2 0xA96 DUP4 CODECOPY DUP2 DUP2 ADD PUSH1 0x40 MSTORE DUP2 ADD SWAP1 PUSH2 0x32 SWAP2 SWAP1 PUSH2 0x11C JUMP JUMPDEST CALLER PUSH1 0x0 DUP1 PUSH2 0x100 EXP DUP2 SLOAD DUP2 PUSH20 0xFFFFFFFFFFFFFFFFFFFFFFFFFFFFFFFFFFFFFFFF MUL NOT AND SWAP1 DUP4 PUSH20 0xFFFFFFFFFFFFFFFFFFFFFFFFFFFFFFFFFFFFFFFF AND MUL OR SWAP1 SSTORE POP DUP1 PUSH1 0x1 PUSH1 0x0 PUSH2 0x100 EXP DUP2 SLOAD DUP2 PUSH20 0xFFFFFFFFFFFFFFFFFFFFFFFFFFFFFFFFFFFFFFFF MUL NOT AND SWAP1 DUP4 PUSH20 0xFFFFFFFFFFFFFFFFFFFFFFFFFFFFFFFFFFFFFFFF AND MUL OR SWAP1 SSTORE POP POP PUSH2 0x149 JUMP JUMPDEST PUSH1 0x0 DUP1 REVERT JUMPDEST PUSH1 0x0 PUSH20 0xFFFFFFFFFFFFFFFFFFFFFFFFFFFFFFFFFFFFFFFF DUP3 AND SWAP1 POP SWAP2 SWAP1 POP JUMP JUMPDEST PUSH1 0x0 PUSH2 0xE9 DUP3 PUSH2 0xBE JUMP JUMPDEST SWAP1 POP SWAP2 SWAP1 POP JUMP JUMPDEST PUSH2 0xF9 DUP2 PUSH2 0xDE JUMP JUMPDEST DUP2 EQ PUSH2 0x104 JUMPI PUSH1 0x0 DUP1 REVERT JUMPDEST POP JUMP JUMPDEST PUSH1 0x0 DUP2 MLOAD SWAP1 POP PUSH2 0x116 DUP2 PUSH2 0xF0 JUMP JUMPDEST SWAP3 SWAP2 POP POP JUMP JUMPDEST PUSH1 0x0 PUSH1 0x20 DUP3 DUP5 SUB SLT ISZERO PUSH2 0x132 JUMPI PUSH2 0x131 PUSH2 0xB9 JUMP JUMPDEST JUMPDEST PUSH1 0x0 PUSH2 0x140 DUP5 DUP3 DUP6 ADD PUSH2 0x107 JUMP JUMPDEST SWAP2 POP POP SWAP3 SWAP2 POP POP JUMP JUMPDEST PUSH2 0x93E DUP1 PUSH2 0x158 PUSH1 0x0 CODECOPY PUSH1 0x0 RETURN INVALID PUSH1 0x80 PUSH1 0x40 MSTORE CALLVALUE DUP1 ISZERO PUSH2 0x10 JUMPI PUSH1 0x0 DUP1 REVERT JUMPDEST POP PUSH1 0x4 CALLDATASIZE LT PUSH2 0x41 JUMPI PUSH1 0x0 CALLDATALOAD PUSH1 0xE0 SHR DUP1 PUSH4 0x4B31BB10 EQ PUSH2 0x46 JUMPI DUP1 PUSH4 0x6FC8646E EQ PUSH2 0x64 JUMPI DUP1 PUSH4 0xF851A440 EQ PUSH2 0x80 JUMPI JUMPDEST PUSH1 0x0 DUP1 REVERT JUMPDEST PUSH2 0x4E PUSH2 0x9E JUMP JUMPDEST PUSH1 0x40 MLOAD PUSH2 0x5B SWAP2 SWAP1 PUSH2 0x490 JUMP JUMPDEST PUSH1 0x40 MLOAD DUP1 SWAP2 SUB SWAP1 RETURN JUMPDEST PUSH2 0x7E PUSH1 0x4 DUP1 CALLDATASIZE SUB DUP2 ADD SWAP1 PUSH2 0x79 SWAP2 SWAP1 PUSH2 0x550 JUMP JUMPDEST PUSH2 0xC4 JUMP JUMPDEST STOP JUMPDEST PUSH2 0x88 PUSH2 0x3ED JUMP JUMPDEST PUSH1 0x40 MLOAD PUSH2 0x95 SWAP2 SWAP1 PUSH2 0x5E5 JUMP JUMPDEST PUSH1 0x40 MLOAD DUP1 SWAP2 SUB SWAP1 RETURN JUMPDEST PUSH1 0x1 PUSH1 0x0 SWAP1 SLOAD SWAP1 PUSH2 0x100 EXP SWAP1 DIV PUSH20 0xFFFFFFFFFFFFFFFFFFFFFFFFFFFFFFFFFFFFFFFF AND DUP2 JUMP JUMPDEST PUSH1 0x0 DUP1 SLOAD SWAP1 PUSH2 0x100 EXP SWAP1 DIV PUSH20 0xFFFFFFFFFFFFFFFFFFFFFFFFFFFFFFFFFFFFFFFF AND PUSH20 0xFFFFFFFFFFFFFFFFFFFFFFFFFFFFFFFFFFFFFFFF AND CALLER PUSH20 0xFFFFFFFFFFFFFFFFFFFFFFFFFFFFFFFFFFFFFFFF AND EQ PUSH2 0x152 JUMPI PUSH1 0x40 MLOAD PUSH32 0x8C379A000000000000000000000000000000000000000000000000000000000 DUP2 MSTORE PUSH1 0x4 ADD PUSH2 0x149 SWAP1 PUSH2 0x65D JUMP JUMPDEST PUSH1 0x40 MLOAD DUP1 SWAP2 SUB SWAP1 REVERT JUMPDEST PUSH1 0x0 DUP1 PUSH1 0x0 SWAP1 POP JUMPDEST DUP5 DUP5 SWAP1 POP DUP2 LT ISZERO PUSH2 0x250 JUMPI PUSH1 0x0 PUSH1 0x1 PUSH1 0x0 SWAP1 SLOAD SWAP1 PUSH2 0x100 EXP SWAP1 DIV PUSH20 0xFFFFFFFFFFFFFFFFFFFFFFFFFFFFFFFFFFFFFFFF AND PUSH20 0xFFFFFFFFFFFFFFFFFFFFFFFFFFFFFFFFFFFFFFFF AND PUSH4 0x6CE12C35 DUP9 DUP9 DUP9 DUP7 DUP2 DUP2 LT PUSH2 0x1B9 JUMPI PUSH2 0x1B8 PUSH2 0x67D JUMP JUMPDEST JUMPDEST SWAP1 POP PUSH1 0x20 MUL ADD PUSH1 0x20 DUP2 ADD SWAP1 PUSH2 0x1CE SWAP2 SWAP1 PUSH2 0x6D8 JUMP JUMPDEST PUSH1 0x40 MLOAD DUP4 PUSH4 0xFFFFFFFF AND PUSH1 0xE0 SHL DUP2 MSTORE PUSH1 0x4 ADD PUSH2 0x1EB SWAP3 SWAP2 SWAP1 PUSH2 0x714 JUMP JUMPDEST PUSH1 0x40 DUP1 MLOAD DUP1 DUP4 SUB DUP2 DUP7 GAS STATICCALL ISZERO DUP1 ISZERO PUSH2 0x207 JUMPI RETURNDATASIZE PUSH1 0x0 DUP1 RETURNDATACOPY RETURNDATASIZE PUSH1 0x0 REVERT JUMPDEST POP POP POP POP PUSH1 0x40 MLOAD RETURNDATASIZE PUSH1 0x1F NOT PUSH1 0x1F DUP3 ADD AND DUP3 ADD DUP1 PUSH1 0x40 MSTORE POP DUP2 ADD SWAP1 PUSH2 0x22B SWAP2 SWAP1 PUSH2 0x752 JUMP JUMPDEST POP SWAP1 POP DUP1 DUP4 PUSH2 0x23A SWAP2 SWAP1 PUSH2 0x7C1 JUMP JUMPDEST SWAP3 POP POP DUP1 DUP1 PUSH2 0x248 SWAP1 PUSH2 0x7F5 JUMP JUMPDEST SWAP2 POP POP PUSH2 0x15A JUMP JUMPDEST POP PUSH1 0x0 JUMPDEST DUP5 DUP5 SWAP1 POP DUP2 LT ISZERO PUSH2 0x3E5 JUMPI PUSH1 0x0 PUSH1 0x1 PUSH1 0x0 SWAP1 SLOAD SWAP1 PUSH2 0x100 EXP SWAP1 DIV PUSH20 0xFFFFFFFFFFFFFFFFFFFFFFFFFFFFFFFFFFFFFFFF AND PUSH20 0xFFFFFFFFFFFFFFFFFFFFFFFFFFFFFFFFFFFFFFFF AND PUSH4 0x6CE12C35 DUP9 DUP9 DUP9 DUP7 DUP2 DUP2 LT PUSH2 0x2B3 JUMPI PUSH2 0x2B2 PUSH2 0x67D JUMP JUMPDEST JUMPDEST SWAP1 POP PUSH1 0x20 MUL ADD PUSH1 0x20 DUP2 ADD SWAP1 PUSH2 0x2C8 SWAP2 SWAP1 PUSH2 0x6D8 JUMP JUMPDEST PUSH1 0x40 MLOAD DUP4 PUSH4 0xFFFFFFFF AND PUSH1 0xE0 SHL DUP2 MSTORE PUSH1 0x4 ADD PUSH2 0x2E5 SWAP3 SWAP2 SWAP1 PUSH2 0x714 JUMP JUMPDEST PUSH1 0x40 DUP1 MLOAD DUP1 DUP4 SUB DUP2 DUP7 GAS STATICCALL ISZERO DUP1 ISZERO PUSH2 0x301 JUMPI RETURNDATASIZE PUSH1 0x0 DUP1 RETURNDATACOPY RETURNDATASIZE PUSH1 0x0 REVERT JUMPDEST POP POP POP POP PUSH1 0x40 MLOAD RETURNDATASIZE PUSH1 0x1F NOT PUSH1 0x1F DUP3 ADD AND DUP3 ADD DUP1 PUSH1 0x40 MSTORE POP DUP2 ADD SWAP1 PUSH2 0x325 SWAP2 SWAP1 PUSH2 0x752 JUMP JUMPDEST POP SWAP1 POP PUSH1 0x0 DUP2 GT DUP1 ISZERO PUSH2 0x338 JUMPI POP PUSH1 0x0 DUP4 GT JUMPDEST ISZERO PUSH2 0x3D1 JUMPI PUSH1 0x0 DUP4 DUP3 DUP7 PUSH2 0x34C SWAP2 SWAP1 PUSH2 0x83D JUMP JUMPDEST PUSH2 0x356 SWAP2 SWAP1 PUSH2 0x8AE JUMP JUMPDEST SWAP1 POP DUP7 DUP7 DUP5 DUP2 DUP2 LT PUSH2 0x36B JUMPI PUSH2 0x36A PUSH2 0x67D JUMP JUMPDEST JUMPDEST SWAP1 POP PUSH1 0x20 MUL ADD PUSH1 0x20 DUP2 ADD SWAP1 PUSH2 0x380 SWAP2 SWAP1 PUSH2 0x6D8 JUMP JUMPDEST PUSH20 0xFFFFFFFFFFFFFFFFFFFFFFFFFFFFFFFFFFFFFFFF AND PUSH32 0x70E76A9BE087AFE1E66B1944DDA5F15C0605DBD645279B14A228C5698F58939B DUP10 DUP4 PUSH1 0x40 MLOAD PUSH2 0x3C7 SWAP3 SWAP2 SWAP1 PUSH2 0x8DF JUMP JUMPDEST PUSH1 0x40 MLOAD DUP1 SWAP2 SUB SWAP1 LOG2 POP JUMPDEST POP DUP1 DUP1 PUSH2 0x3DD SWAP1 PUSH2 0x7F5 JUMP JUMPDEST SWAP2 POP POP PUSH2 0x254 JUMP JUMPDEST POP POP POP POP POP POP JUMP JUMPDEST PUSH1 0x0 DUP1 SLOAD SWAP1 PUSH2 0x100 EXP SWAP1 DIV PUSH20 0xFFFFFFFFFFFFFFFFFFFFFFFFFFFFFFFFFFFFFFFF AND DUP2 JUMP JUMPDEST PUSH1 0x0 PUSH20 0xFFFFFFFFFFFFFFFFFFFFFFFFFFFFFFFFFFFFFFFF DUP3 AND SWAP1 POP SWAP2 SWAP1 POP JUMP JUMPDEST PUSH1 0x0 DUP2 SWAP1 POP SWAP2 SWAP1 POP JUMP JUMPDEST PUSH1 0x0 PUSH2 0x456 PUSH2 0x451 PUSH2 0x44C DUP5 PUSH2 0x411 JUMP JUMPDEST PUSH2 0x431 JUMP JUMPDEST PUSH2 0x411 JUMP JUMPDEST SWAP1 POP SWAP2 SWAP1 POP JUMP JUMPDEST PUSH1 0x0 PUSH2 0x468 DUP3 PUSH2 0x43B JUMP JUMPDEST SWAP1 POP SWAP2 SWAP1 POP JUMP JUMPDEST PUSH1 0x0 PUSH2 0x47A DUP3 PUSH2 0x45D JUMP JUMPDEST SWAP1 POP SWAP2 SWAP1 POP JUMP JUMPDEST PUSH2 0x48A DUP2 PUSH2 0x46F JUMP JUMPDEST DUP3 MSTORE POP POP JUMP JUMPDEST PUSH1 0x0 PUSH1 0x20 DUP3 ADD SWAP1 POP PUSH2 0x4A5 PUSH1 0x0 DUP4 ADD DUP5 PUSH2 0x481 JUMP JUMPDEST SWAP3 SWAP2 POP POP JUMP JUMPDEST PUSH1 0x0 DUP1 REVERT JUMPDEST PUSH1 0x0 DUP1 REVERT JUMPDEST PUSH1 0x0 DUP2 SWAP1 POP SWAP2 SWAP1 POP JUMP JUMPDEST PUSH2 0x4C8 DUP2 PUSH2 0x4B5 JUMP JUMPDEST DUP2 EQ PUSH2 0x4D3 JUMPI PUSH1 0x0 DUP1 REVERT JUMPDEST POP JUMP JUMPDEST PUSH1 0x0 DUP2 CALLDATALOAD SWAP1 POP PUSH2 0x4E5 DUP2 PUSH2 0x4BF JUMP JUMPDEST SWAP3 SWAP2 POP POP JUMP JUMPDEST PUSH1 0x0 DUP1 REVERT JUMPDEST PUSH1 0x0 DUP1 REVERT JUMPDEST PUSH1 0x0 DUP1 REVERT JUMPDEST PUSH1 0x0 DUP1 DUP4 PUSH1 0x1F DUP5 ADD SLT PUSH2 0x510 JUMPI PUSH2 0x50F PUSH2 0x4EB JUMP JUMPDEST JUMPDEST DUP3 CALLDATALOAD SWAP1 POP PUSH8 0xFFFFFFFFFFFFFFFF DUP2 GT ISZERO PUSH2 0x52D JUMPI PUSH2 0x52C PUSH2 0x4F0 JUMP JUMPDEST JUMPDEST PUSH1 0x20 DUP4 ADD SWAP2 POP DUP4 PUSH1 0x20 DUP3 MUL DUP4 ADD GT ISZERO PUSH2 0x549 JUMPI PUSH2 0x548 PUSH2 0x4F5 JUMP JUMPDEST JUMPDEST SWAP3 POP SWAP3 SWAP1 POP JUMP JUMPDEST PUSH1 0x0 DUP1 PUSH1 0x0 DUP1 PUSH1 0x60 DUP6 DUP8 SUB SLT ISZERO PUSH2 0x56A JUMPI PUSH2 0x569 PUSH2 0x4AB JUMP JUMPDEST JUMPDEST PUSH1 0x0 PUSH2 0x578 DUP8 DUP3 DUP9 ADD PUSH2 0x4D6 JUMP JUMPDEST SWAP5 POP POP PUSH1 0x20 DUP6 ADD CALLDATALOAD PUSH8 0xFFFFFFFFFFFFFFFF DUP2 GT ISZERO PUSH2 0x599 JUMPI PUSH2 0x598 PUSH2 0x4B0 JUMP JUMPDEST JUMPDEST PUSH2 0x5A5 DUP8 DUP3 DUP9 ADD PUSH2 0x4FA JUMP JUMPDEST SWAP4 POP SWAP4 POP POP PUSH1 0x40 PUSH2 0x5B8 DUP8 DUP3 DUP9 ADD PUSH2 0x4D6 JUMP JUMPDEST SWAP2 POP POP SWAP3 SWAP6 SWAP2 SWAP5 POP SWAP3 POP JUMP JUMPDEST PUSH1 0x0 PUSH2 0x5CF DUP3 PUSH2 0x411 JUMP JUMPDEST SWAP1 POP SWAP2 SWAP1 POP JUMP JUMPDEST PUSH2 0x5DF DUP2 PUSH2 0x5C4 JUMP JUMPDEST DUP3 MSTORE POP POP JUMP JUMPDEST PUSH1 0x0 PUSH1 0x20 DUP3 ADD SWAP1 POP PUSH2 0x5FA PUSH1 0x0 DUP4 ADD DUP5 PUSH2 0x5D6 JUMP JUMPDEST SWAP3 SWAP2 POP POP JUMP JUMPDEST PUSH1 0x0 DUP3 DUP3 MSTORE PUSH1 0x20 DUP3 ADD SWAP1 POP SWAP3 SWAP2 POP POP JUMP JUMPDEST PUSH32 0x4F6E6C792061646D696E2063616E2063616C6C20746869730000000000000000 PUSH1 0x0 DUP3 ADD MSTORE POP JUMP JUMPDEST PUSH1 0x0 PUSH2 0x647 PUSH1 0x18 DUP4 PUSH2 0x600 JUMP JUMPDEST SWAP2 POP PUSH2 0x652 DUP3 PUSH2 0x611 JUMP JUMPDEST PUSH1 0x20 DUP3 ADD SWAP1 POP SWAP2 SWAP1 POP JUMP JUMPDEST PUSH1 0x0 PUSH1 0x20 DUP3 ADD SWAP1 POP DUP2 DUP2 SUB PUSH1 0x0 DUP4 ADD MSTORE PUSH2 0x676 DUP2 PUSH2 0x63A JUMP JUMPDEST SWAP1 POP SWAP2 SWAP1 POP JUMP JUMPDEST PUSH32 0x4E487B7100000000000000000000000000000000000000000000000000000000 PUSH1 0x0 MSTORE PUSH1 0x32 PUSH1 0x4 MSTORE PUSH1 0x24 PUSH1 0x0 REVERT JUMPDEST PUSH2 0x6B5 DUP2 PUSH2 0x5C4 JUMP JUMPDEST DUP2 EQ PUSH2 0x6C0 JUMPI PUSH1 0x0 DUP1 REVERT JUMPDEST POP JUMP JUMPDEST PUSH1 0x0 DUP2 CALLDATALOAD SWAP1 POP PUSH2 0x6D2 DUP2 PUSH2 0x6AC JUMP JUMPDEST SWAP3 SWAP2 POP POP JUMP JUMPDEST PUSH1 0x0 PUSH1 0x20 DUP3 DUP5 SUB SLT ISZERO PUSH2 0x6EE JUMPI PUSH2 0x6ED PUSH2 0x4AB JUMP JUMPDEST JUMPDEST PUSH1 0x0 PUSH2 0x6FC DUP5 DUP3 DUP6 ADD PUSH2 0x6C3 JUMP JUMPDEST SWAP2 POP POP SWAP3 SWAP2 POP POP JUMP JUMPDEST PUSH2 0x70E DUP2 PUSH2 0x4B5 JUMP JUMPDEST DUP3 MSTORE POP POP JUMP JUMPDEST PUSH1 0x0 PUSH1 0x40 DUP3 ADD SWAP1 POP PUSH2 0x729 PUSH1 0x0 DUP4 ADD DUP6 PUSH2 0x705 JUMP JUMPDEST PUSH2 0x736 PUSH1 0x20 DUP4 ADD DUP5 PUSH2 0x5D6 JUMP JUMPDEST SWAP4 SWAP3 POP POP POP JUMP JUMPDEST PUSH1 0x0 DUP2 MLOAD SWAP1 POP PUSH2 0x74C DUP2 PUSH2 0x4BF JUMP JUMPDEST SWAP3 SWAP2 POP POP JUMP JUMPDEST PUSH1 0x0 DUP1 PUSH1 0x40 DUP4 DUP6 SUB SLT ISZERO PUSH2 0x769 JUMPI PUSH2 0x768 PUSH2 0x4AB JUMP JUMPDEST JUMPDEST PUSH1 0x0 PUSH2 0x777 DUP6 DUP3 DUP7 ADD PUSH2 0x73D JUMP JUMPDEST SWAP3 POP POP PUSH1 0x20 PUSH2 0x788 DUP6 DUP3 DUP7 ADD PUSH2 0x73D JUMP JUMPDEST SWAP2 POP POP SWAP3 POP SWAP3 SWAP1 POP JUMP JUMPDEST PUSH32 0x4E487B7100000000000000000000000000000000000000000000000000000000 PUSH1 0x0 MSTORE PUSH1 0x11 PUSH1 0x4 MSTORE PUSH1 0x24 PUSH1 0x0 REVERT JUMPDEST PUSH1 0x0 PUSH2 0x7CC DUP3 PUSH2 0x4B5 JUMP JUMPDEST SWAP2 POP PUSH2 0x7D7 DUP4 PUSH2 0x4B5 JUMP JUMPDEST SWAP3 POP DUP3 DUP3 ADD SWAP1 POP DUP1 DUP3 GT ISZERO PUSH2 0x7EF JUMPI PUSH2 0x7EE PUSH2 0x792 JUMP JUMPDEST JUMPDEST SWAP3 SWAP2 POP POP JUMP JUMPDEST PUSH1 0x0 PUSH2 0x800 DUP3 PUSH2 0x4B5 JUMP JUMPDEST SWAP2 POP PUSH32 0xFFFFFFFFFFFFFFFFFFFFFFFFFFFFFFFFFFFFFFFFFFFFFFFFFFFFFFFFFFFFFFFF DUP3 SUB PUSH2 0x832 JUMPI PUSH2 0x831 PUSH2 0x792 JUMP JUMPDEST JUMPDEST PUSH1 0x1 DUP3 ADD SWAP1 POP SWAP2 SWAP1 POP JUMP JUMPDEST PUSH1 0x0 PUSH2 0x848 DUP3 PUSH2 0x4B5 JUMP JUMPDEST SWAP2 POP PUSH2 0x853 DUP4 PUSH2 0x4B5 JUMP JUMPDEST SWAP3 POP DUP3 DUP3 MUL PUSH2 0x861 DUP2 PUSH2 0x4B5 JUMP JUMPDEST SWAP2 POP DUP3 DUP3 DIV DUP5 EQ DUP4 ISZERO OR PUSH2 0x878 JUMPI PUSH2 0x877 PUSH2 0x792 JUMP JUMPDEST JUMPDEST POP SWAP3 SWAP2 POP POP JUMP JUMPDEST PUSH32 0x4E487B7100000000000000000000000000000000000000000000000000000000 PUSH1 0x0 MSTORE PUSH1 0x12 PUSH1 0x4 MSTORE PUSH1 0x24 PUSH1 0x0 REVERT JUMPDEST PUSH1 0x0 PUSH2 0x8B9 DUP3 PUSH2 0x4B5 JUMP JUMPDEST SWAP2 POP PUSH2 0x8C4 DUP4 PUSH2 0x4B5 JUMP JUMPDEST SWAP3 POP DUP3 PUSH2 0x8D4 JUMPI PUSH2 0x8D3 PUSH2 0x87F JUMP JUMPDEST JUMPDEST DUP3 DUP3 DIV SWAP1 POP SWAP3 SWAP2 POP POP JUMP JUMPDEST PUSH1 0x0 PUSH1 0x40 DUP3 ADD SWAP1 POP PUSH2 0x8F4 PUSH1 0x0 DUP4 ADD DUP6 PUSH2 0x705 JUMP JUMPDEST PUSH2 0x901 PUSH1 0x20 DUP4 ADD DUP5 PUSH2 0x705 JUMP JUMPDEST SWAP4 SWAP3 POP POP POP JUMP INVALID LOG2 PUSH5 0x6970667358 0x22 SLT KECCAK256 LOG4 DUP12 0xCC DUP15 0xE1 CALLDATALOAD PUSH8 0x4ED9E872C31C9AA2 CALLVALUE 0xF7 SAR CALLER 0xD7 MUL STOP SUB DELEGATECALL 0xF BALANCE 0x22 0x28 SGT RETURNDATASIZE 0xC1 0xE3 PUSH5 0x736F6C6343 STOP ADDMOD EQ STOP CALLER "
        },
        "methodIdentifiers": {
          "admin()": "f851a440",
          "investmentManager()": "4b31bb10",
          "recordRentDistribution(uint256,address[],uint256)": "6fc8646e"
        }
      }
    }
  }
}