{
  "_format": "hh-sol-artifact-1",
  "contractName": "ProjectRegistry",
  "sourceName": "contracts/ProjectRegistry.sol",
  "abi": [
    {
      "inputs": [],
      "stateMutability": "nonpayable",
      "type": "constructor"
    },
    {
      "anonymous": false,
      "inputs": [
        {
          "indexed": false,
          "internalType": "uint256",
          "name": "id",
          "type": "uint256"
        },
        {
          "indexed": false,
          "internalType": "string",
          "name": "name",
          "type": "string"
        },
        {
          "indexed": false,
          "internalType": "uint256",
          "name": "goalAmount",
          "type": "uint256"
        }
      ],
      "name": "ProjectCreated",
      "type": "event"
    },
    {
      "anonymous": false,
      "inputs": [
        {
          "indexed": false,
          "internalType": "uint256",
          "name": "id",
          "type": "uint256"
        },
        {
          "indexed": false,
          "internalType": "uint256",
          "name": "currentAmount",
          "type": "uint256"
        },
        {
          "indexed": false,
          "internalType": "enum ProjectRegistry.Status",
          "name": "status",
          "type": "uint8"
        }
      ],
      "name": "ProjectUpdated",
      "type": "event"
    },
    {
      "inputs": [],
      "name": "admin",
      "outputs": [
        {
          "internalType": "address",
          "name": "",
          "type": "address"
        }
      ],
      "stateMutability": "view",
      "type": "function"
    },
    {
      "inputs": [
        {
          "internalType": "string",
          "name": "name",
          "type": "string"
        },
        {
          "internalType": "uint256",
          "name": "goalAmount",
          "type": "uint256"
        }
      ],
      "name": "createProject",
      "outputs": [],
      "stateMutability": "nonpayable",
      "type": "function"
    },
    {
      "inputs": [],
      "name": "projectCount",
      "outputs": [
        {
          "internalType": "uint256",
          "name": "",
          "type": "uint256"
        }
      ],
      "stateMutability": "view",
      "type": "function"
    },
    {
      "inputs": [
        {
          "internalType": "uint256",
          "name": "",
          "type": "uint256"
        }
      ],
      "name": "projects",
      "outputs": [
        {
          "internalType": "uint256",
          "name": "id",
          "type": "uint256"
        },
        {
          "internalType": "string",
          "name": "name",
          "type": "string"
        },
        {
          "internalType": "uint256",
          "name": "goalAmount",
          "type": "uint256"
        },
        {
          "internalType": "uint256",
          "name": "currentAmount",
          "type": "uint256"
        },
        {
          "internalType": "enum ProjectRegistry.Status",
          "name": "status",
          "type": "uint8"
        }
      ],
      "stateMutability": "view",
      "type": "function"
    },
    {
      "inputs": [
        {
          "internalType": "uint256",
          "name": "projectId",
          "type": "uint256"
        },
        {
          "internalType": "uint256",
          "name": "newAmount",
          "type": "uint256"
        },
        {
          "internalType": "enum ProjectRegistry.Status",
          "name": "newStatus",
          "type": "uint8"
        }
      ],
      "name": "updateProject",
      "outputs": [],
      "stateMutability": "nonpayable",
      "type": "function"
    }
  ],
  "bytecode": "0x608060405234801561001057600080fd5b50336000806101000a81548173ffffffffffffffffffffffffffffffffffffffff021916908373ffffffffffffffffffffffffffffffffffffffff160217905550610d65806100606000396000f3fe608060405234801561001057600080fd5b50600436106100575760003560e01c8063107046bd1461005c57806336fbad261461009057806376697d68146100ae57806391754a5d146100ca578063f851a440146100e6575b600080fd5b6100766004803603810190610071919061053b565b610104565b60405161008795949392919061067e565b60405180910390f35b6100986101cf565b6040516100a591906106d8565b60405180910390f35b6100c860048036038101906100c39190610718565b6101d5565b005b6100e460048036038101906100df91906107d0565b6102f0565b005b6100ee6104d7565b6040516100fb9190610871565b60405180910390f35b600260205280600052604060002060009150905080600001549080600101805461012d906108bb565b80601f0160208091040260200160405190810160405280929190818152602001828054610159906108bb565b80156101a65780601f1061017b576101008083540402835291602001916101a6565b820191906000526020600020905b81548152906001019060200180831161018957829003601f168201915b5050505050908060020154908060030154908060040160009054906101000a900460ff16905085565b60015481565b60008054906101000a900473ffffffffffffffffffffffffffffffffffffffff1673ffffffffffffffffffffffffffffffffffffffff163373ffffffffffffffffffffffffffffffffffffffff1614610263576040517f08c379a000000000000000000000000000000000000000000000000000000000815260040161025a90610938565b60405180910390fd5b6000600260008581526020019081526020016000209050828160030181905550818160040160006101000a81548160ff021916908360028111156102aa576102a9610607565b5b02179055507f2630afa4a74012f3fca7eef58999448988243677517f819a2e3c3a7edc01f9ad8484846040516102e293929190610958565b60405180910390a150505050565b60008054906101000a900473ffffffffffffffffffffffffffffffffffffffff1673ffffffffffffffffffffffffffffffffffffffff163373ffffffffffffffffffffffffffffffffffffffff161461037e576040517f08c379a000000000000000000000000000000000000000000000000000000000815260040161037590610938565b60405180910390fd5b60016000815480929190610391906109be565b91905055506040518060a00160405280600154815260200184848080601f016020809104026020016040519081016040528093929190818152602001838380828437600081840152601f19601f820116905080830192505050505050508152602001828152602001600081526020016000600281111561041457610413610607565b5b81525060026000600154815260200190815260200160002060008201518160000155602082015181600101908161044b9190610be1565b50604082015181600201556060820151816003015560808201518160040160006101000a81548160ff0219169083600281111561048b5761048a610607565b5b02179055509050507f6245d01eb0db8df9242165c3ee1e2324367f93303d7b8f6a86e38a8767e643ae6001548484846040516104ca9493929190610cef565b60405180910390a1505050565b60008054906101000a900473ffffffffffffffffffffffffffffffffffffffff1681565b600080fd5b600080fd5b6000819050919050565b61051881610505565b811461052357600080fd5b50565b6000813590506105358161050f565b92915050565b600060208284031215610551576105506104fb565b5b600061055f84828501610526565b91505092915050565b61057181610505565b82525050565b600081519050919050565b600082825260208201905092915050565b60005b838110156105b1578082015181840152602081019050610596565b60008484015250505050565b6000601f19601f8301169050919050565b60006105d982610577565b6105e38185610582565b93506105f3818560208601610593565b6105fc816105bd565b840191505092915050565b7f4e487b7100000000000000000000000000000000000000000000000000000000600052602160045260246000fd5b6003811061064757610646610607565b5b50565b600081905061065882610636565b919050565b60006106688261064a565b9050919050565b6106788161065d565b82525050565b600060a0820190506106936000830188610568565b81810360208301526106a581876105ce565b90506106b46040830186610568565b6106c16060830185610568565b6106ce608083018461066f565b9695505050505050565b60006020820190506106ed6000830184610568565b92915050565b6003811061070057600080fd5b50565b600081359050610712816106f3565b92915050565b600080600060608486031215610731576107306104fb565b5b600061073f86828701610526565b935050602061075086828701610526565b925050604061076186828701610703565b9150509250925092565b600080fd5b600080fd5b600080fd5b60008083601f8401126107905761078f61076b565b5b8235905067ffffffffffffffff8111156107ad576107ac610770565b5b6020830191508360018202830111156107c9576107c8610775565b5b9250929050565b6000806000604084860312156107e9576107e86104fb565b5b600084013567ffffffffffffffff81111561080757610806610500565b5b6108138682870161077a565b9350935050602061082686828701610526565b9150509250925092565b600073ffffffffffffffffffffffffffffffffffffffff82169050919050565b600061085b82610830565b9050919050565b61086b81610850565b82525050565b60006020820190506108866000830184610862565b92915050565b7f4e487b7100000000000000000000000000000000000000000000000000000000600052602260045260246000fd5b600060028204905060018216806108d357607f821691505b6020821081036108e6576108e561088c565b5b50919050565b7f4f6e6c792061646d696e2063616e2063616c6c20746869730000000000000000600082015250565b6000610922601883610582565b915061092d826108ec565b602082019050919050565b6000602082019050818103600083015261095181610915565b9050919050565b600060608201905061096d6000830186610568565b61097a6020830185610568565b610987604083018461066f565b949350505050565b7f4e487b7100000000000000000000000000000000000000000000000000000000600052601160045260246000fd5b60006109c982610505565b91507fffffffffffffffffffffffffffffffffffffffffffffffffffffffffffffffff82036109fb576109fa61098f565b5b600182019050919050565b7f4e487b7100000000000000000000000000000000000000000000000000000000600052604160045260246000fd5b60008190508160005260206000209050919050565b60006020601f8301049050919050565b600082821b905092915050565b600060088302610a977fffffffffffffffffffffffffffffffffffffffffffffffffffffffffffffffff82610a5a565b610aa18683610a5a565b95508019841693508086168417925050509392505050565b6000819050919050565b6000610ade610ad9610ad484610505565b610ab9565b610505565b9050919050565b6000819050919050565b610af883610ac3565b610b0c610b0482610ae5565b848454610a67565b825550505050565b600090565b610b21610b14565b610b2c818484610aef565b505050565b5b81811015610b5057610b45600082610b19565b600181019050610b32565b5050565b601f821115610b9557610b6681610a35565b610b6f84610a4a565b81016020851015610b7e578190505b610b92610b8a85610a4a565b830182610b31565b50505b505050565b600082821c905092915050565b6000610bb860001984600802610b9a565b1980831691505092915050565b6000610bd18383610ba7565b9150826002028217905092915050565b610bea82610577565b67ffffffffffffffff811115610c0357610c02610a06565b5b610c0d82546108bb565b610c18828285610b54565b600060209050601f831160018114610c4b5760008415610c39578287015190505b610c438582610bc5565b865550610cab565b601f198416610c5986610a35565b60005b82811015610c8157848901518255600182019150602085019450602081019050610c5c565b86831015610c9e5784890151610c9a601f891682610ba7565b8355505b6001600288020188555050505b505050505050565b82818337600083830152505050565b6000610cce8385610582565b9350610cdb838584610cb3565b610ce4836105bd565b840190509392505050565b6000606082019050610d046000830187610568565b8181036020830152610d17818587610cc2565b9050610d266040830184610568565b9594505050505056fea2646970667358221220e3d217dbeaa9e9ec8d1059bd858d462c8d3807957f0e577047edc1b95da74ca164736f6c63430008140033",
  "linkReferences": {},
  "deployedLinkReferences": {}
}